{
  "contractName": "Voting",
  "abi": [
    {
      "anonymous": false,
      "inputs": [
        {
          "indexed": true,
          "internalType": "address",
          "name": "previousOwner",
          "type": "address"
        },
        {
          "indexed": true,
          "internalType": "address",
          "name": "newOwner",
          "type": "address"
        }
      ],
      "name": "OwnershipTransferred",
      "type": "event"
    },
    {
      "anonymous": false,
      "inputs": [
        {
          "indexed": false,
          "internalType": "uint256",
          "name": "index",
          "type": "uint256"
        },
        {
          "indexed": false,
          "internalType": "uint256",
          "name": "proposalId",
          "type": "uint256"
        }
      ],
      "name": "ProposalDeleted",
      "type": "event"
    },
    {
      "anonymous": false,
      "inputs": [
        {
          "indexed": false,
          "internalType": "uint256",
          "name": "index",
          "type": "uint256"
        },
        {
          "indexed": false,
          "internalType": "uint256",
          "name": "proposalId",
          "type": "uint256"
        },
        {
          "indexed": false,
          "internalType": "address",
          "name": "proposalSender",
          "type": "address"
        }
      ],
      "name": "ProposalRegistered",
      "type": "event"
    },
    {
      "anonymous": false,
      "inputs": [
        {
          "indexed": false,
          "internalType": "uint256",
          "name": "index",
          "type": "uint256"
        },
        {
          "indexed": false,
          "internalType": "address",
          "name": "voter",
          "type": "address"
        },
        {
          "indexed": false,
          "internalType": "uint256",
          "name": "proposalId",
          "type": "uint256"
        }
      ],
      "name": "Voted",
      "type": "event"
    },
    {
      "anonymous": false,
      "inputs": [
        {
          "indexed": false,
          "internalType": "uint256",
          "name": "index",
          "type": "uint256"
        },
        {
          "indexed": false,
          "internalType": "address",
          "name": "voterAddress",
          "type": "address"
        }
      ],
      "name": "VoterExcluded",
      "type": "event"
    },
    {
      "anonymous": false,
      "inputs": [
        {
          "indexed": false,
          "internalType": "uint256",
          "name": "index",
          "type": "uint256"
        },
        {
          "indexed": false,
          "internalType": "address",
          "name": "voterAddress",
          "type": "address"
        }
      ],
      "name": "VoterRegistered",
      "type": "event"
    },
    {
      "anonymous": false,
      "inputs": [
        {
          "indexed": false,
          "internalType": "uint256",
          "name": "index",
          "type": "uint256"
        },
        {
          "indexed": false,
          "internalType": "address[]",
          "name": "votersAddress",
          "type": "address[]"
        }
      ],
      "name": "VotersExcluded",
      "type": "event"
    },
    {
      "anonymous": false,
      "inputs": [
        {
          "indexed": false,
          "internalType": "uint256",
          "name": "index",
          "type": "uint256"
        },
        {
          "indexed": false,
          "internalType": "address[]",
          "name": "votersAddress",
          "type": "address[]"
        }
      ],
      "name": "VotersRegistered",
      "type": "event"
    },
    {
      "anonymous": false,
      "inputs": [
        {
          "indexed": false,
          "internalType": "uint256",
          "name": "lastSession",
          "type": "uint256"
        }
      ],
      "name": "VotingStarted",
      "type": "event"
    },
    {
      "anonymous": false,
      "inputs": [
        {
          "indexed": false,
          "internalType": "uint256",
          "name": "index",
          "type": "uint256"
        },
        {
          "indexed": false,
          "internalType": "enum Voting.WorkflowStatus",
          "name": "previousStatus",
          "type": "uint8"
        },
        {
          "indexed": false,
          "internalType": "enum Voting.WorkflowStatus",
          "name": "newStatus",
          "type": "uint8"
        }
      ],
      "name": "WorkflowStatusChange",
      "type": "event"
    },
    {
      "inputs": [],
      "name": "lastSession",
      "outputs": [
        {
          "internalType": "uint256",
          "name": "",
          "type": "uint256"
        }
      ],
      "stateMutability": "view",
      "type": "function",
      "constant": true
    },
    {
      "inputs": [],
      "name": "owner",
      "outputs": [
        {
          "internalType": "address",
          "name": "",
          "type": "address"
        }
      ],
      "stateMutability": "view",
      "type": "function",
      "constant": true
    },
    {
      "inputs": [],
      "name": "renounceOwnership",
      "outputs": [],
      "stateMutability": "nonpayable",
      "type": "function"
    },
    {
      "inputs": [
        {
          "internalType": "address",
          "name": "newOwner",
          "type": "address"
        }
      ],
      "name": "transferOwnership",
      "outputs": [],
      "stateMutability": "nonpayable",
      "type": "function"
    },
    {
      "inputs": [
        {
          "internalType": "uint256",
          "name": "",
          "type": "uint256"
        },
        {
          "internalType": "uint256",
          "name": "",
          "type": "uint256"
        }
      ],
      "name": "winningProposals",
      "outputs": [
        {
          "internalType": "string",
          "name": "description",
          "type": "string"
        },
        {
          "internalType": "uint256",
          "name": "voteCount",
          "type": "uint256"
        }
      ],
      "stateMutability": "view",
      "type": "function",
      "constant": true
    },
    {
      "inputs": [
        {
          "internalType": "uint256",
          "name": "",
          "type": "uint256"
        },
        {
          "internalType": "uint256",
          "name": "",
          "type": "uint256"
        }
      ],
      "name": "winningProposalsID",
      "outputs": [
        {
          "internalType": "uint256",
          "name": "",
          "type": "uint256"
        }
      ],
      "stateMutability": "view",
      "type": "function",
      "constant": true
    },
    {
      "inputs": [
        {
          "components": [
            {
              "internalType": "uint256",
              "name": "startDate",
              "type": "uint256"
            },
            {
              "internalType": "uint256",
              "name": "startVoting",
              "type": "uint256"
            },
            {
              "internalType": "uint256",
              "name": "endDate",
              "type": "uint256"
            }
          ],
          "internalType": "struct Voting.Session",
          "name": "_session",
          "type": "tuple"
        },
        {
          "internalType": "uint256",
          "name": "_index",
          "type": "uint256"
        }
      ],
      "name": "startVoting",
      "outputs": [],
      "stateMutability": "nonpayable",
      "type": "function"
    },
    {
      "inputs": [
        {
          "internalType": "uint256",
          "name": "_index",
          "type": "uint256"
        }
      ],
      "name": "getVotingSession",
      "outputs": [
        {
          "components": [
            {
              "internalType": "uint256",
              "name": "startDate",
              "type": "uint256"
            },
            {
              "internalType": "uint256",
              "name": "startVoting",
              "type": "uint256"
            },
            {
              "internalType": "uint256",
              "name": "endDate",
              "type": "uint256"
            }
          ],
          "internalType": "struct Voting.Session",
          "name": "session_",
          "type": "tuple"
        }
      ],
      "stateMutability": "view",
      "type": "function",
      "constant": true
    },
    {
      "inputs": [
        {
          "internalType": "uint256",
          "name": "_index",
          "type": "uint256"
        }
      ],
      "name": "nextWorkflowStatus",
      "outputs": [],
      "stateMutability": "nonpayable",
      "type": "function"
    },
    {
      "inputs": [
        {
          "internalType": "address",
          "name": "_address",
          "type": "address"
        },
        {
          "internalType": "uint256",
          "name": "_index",
          "type": "uint256"
        }
      ],
      "name": "voterRegistered",
      "outputs": [],
      "stateMutability": "nonpayable",
      "type": "function"
    },
    {
      "inputs": [
        {
          "internalType": "address[]",
          "name": "_address",
          "type": "address[]"
        },
        {
          "internalType": "uint256",
          "name": "_index",
          "type": "uint256"
        }
      ],
      "name": "votersRegistered",
      "outputs": [],
      "stateMutability": "nonpayable",
      "type": "function"
    },
    {
      "inputs": [
        {
          "internalType": "address",
          "name": "_address",
          "type": "address"
        },
        {
          "internalType": "uint256",
          "name": "_index",
          "type": "uint256"
        }
      ],
      "name": "voterExcluded",
      "outputs": [],
      "stateMutability": "nonpayable",
      "type": "function"
    },
    {
      "inputs": [
        {
          "internalType": "address[]",
          "name": "_address",
          "type": "address[]"
        },
        {
          "internalType": "uint256",
          "name": "_index",
          "type": "uint256"
        }
      ],
      "name": "votersExcluded",
      "outputs": [],
      "stateMutability": "nonpayable",
      "type": "function"
    },
    {
      "inputs": [
        {
          "internalType": "address",
          "name": "_addressVoter",
          "type": "address"
        },
        {
          "internalType": "uint256",
          "name": "_index",
          "type": "uint256"
        }
      ],
      "name": "getVoter",
      "outputs": [
        {
          "components": [
            {
              "internalType": "bool",
              "name": "isRegistered",
              "type": "bool"
            },
            {
              "internalType": "bool",
              "name": "hasVoted",
              "type": "bool"
            },
            {
              "internalType": "uint256",
              "name": "votedProposalId",
              "type": "uint256"
            }
          ],
          "internalType": "struct Voting.Voter",
          "name": "voterReq_",
          "type": "tuple"
        }
      ],
      "stateMutability": "view",
      "type": "function",
      "constant": true
    },
    {
      "inputs": [
        {
          "internalType": "uint256",
          "name": "_index",
          "type": "uint256"
        },
        {
          "internalType": "string",
          "name": "_description",
          "type": "string"
        }
      ],
      "name": "setProposal",
      "outputs": [],
      "stateMutability": "nonpayable",
      "type": "function"
    },
    {
      "inputs": [
        {
          "internalType": "uint256",
          "name": "_index",
          "type": "uint256"
        },
        {
          "internalType": "uint256",
          "name": "_id",
          "type": "uint256"
        }
      ],
      "name": "getProposal",
      "outputs": [
        {
          "components": [
            {
              "internalType": "string",
              "name": "description",
              "type": "string"
            },
            {
              "internalType": "uint256",
              "name": "voteCount",
              "type": "uint256"
            }
          ],
          "internalType": "struct Voting.Proposal",
          "name": "proposal_",
          "type": "tuple"
        }
      ],
      "stateMutability": "view",
      "type": "function",
      "constant": true
    },
    {
      "inputs": [
        {
          "internalType": "uint256",
          "name": "_index",
          "type": "uint256"
        }
      ],
      "name": "getAllProposal",
      "outputs": [
        {
          "components": [
            {
              "internalType": "string",
              "name": "description",
              "type": "string"
            },
            {
              "internalType": "uint256",
              "name": "voteCount",
              "type": "uint256"
            }
          ],
          "internalType": "struct Voting.Proposal[]",
          "name": "proposals_",
          "type": "tuple[]"
        }
      ],
      "stateMutability": "view",
      "type": "function",
      "constant": true
    },
    {
      "inputs": [
        {
          "internalType": "uint256",
          "name": "_index",
          "type": "uint256"
        },
        {
          "internalType": "uint256",
          "name": "_id",
          "type": "uint256"
        }
      ],
      "name": "deleteProposal",
      "outputs": [],
      "stateMutability": "nonpayable",
      "type": "function"
    },
    {
      "inputs": [
        {
          "internalType": "uint256",
          "name": "_index",
          "type": "uint256"
        },
        {
          "internalType": "uint256",
          "name": "_proposalId",
          "type": "uint256"
        }
      ],
      "name": "setVoted",
      "outputs": [],
      "stateMutability": "nonpayable",
      "type": "function"
    },
    {
      "inputs": [
        {
          "internalType": "uint256",
          "name": "_index",
          "type": "uint256"
        }
      ],
      "name": "tallyVotes",
      "outputs": [],
      "stateMutability": "nonpayable",
      "type": "function"
    },
    {
      "inputs": [
        {
          "internalType": "uint256",
          "name": "_index",
          "type": "uint256"
        }
      ],
      "name": "getWinningProposalsID",
      "outputs": [
        {
          "internalType": "uint256[]",
          "name": "winningProposalsID_",
          "type": "uint256[]"
        }
      ],
      "stateMutability": "view",
      "type": "function",
      "constant": true
    },
    {
      "inputs": [
        {
          "internalType": "uint256",
          "name": "_index",
          "type": "uint256"
        }
      ],
      "name": "getWinningProposals",
      "outputs": [
        {
          "components": [
            {
              "internalType": "string",
              "name": "description",
              "type": "string"
            },
            {
              "internalType": "uint256",
              "name": "voteCount",
              "type": "uint256"
            }
          ],
          "internalType": "struct Voting.Proposal[]",
          "name": "winningProposals_",
          "type": "tuple[]"
        }
      ],
      "stateMutability": "view",
      "type": "function",
      "constant": true
    }
  ],
  "bytecode": "0x608060405234801561001057600080fd5b5061001a3361001f565b61006f565b600080546001600160a01b038381166001600160a01b0319831681178455604051919092169283917f8be0079c531659141344cd1fd0a4f28419497f9722a3daafe3b4186f6b6457e09190a35050565b6123378061007e6000396000f3fe608060405234801561001057600080fd5b50600436106101825760003560e01c806381545f03116100d8578063d453f9e51161008c578063f2fde38b11610066578063f2fde38b146103ce578063f99430fb146103e1578063fb2e1c511461040257600080fd5b8063d453f9e514610312578063eca4c466146103b2578063edbbbb17146103bb57600080fd5b806398ed6060116100bd57806398ed6060146102be578063aba21009146102df578063b07bac88146102ff57600080fd5b806381545f03146102905780638da5cb5b146102a357600080fd5b80634d318b0e1161013a578063715018a611610114578063715018a6146102555780637ac91f4a1461025d5780637da44bf01461027d57600080fd5b80634d318b0e1461021c57806366c39c0e1461022f57806366cab6f51461024257600080fd5b806328e821a71161016b57806328e821a7146101d65780633eb8031c146101e957806343a1a724146101fc57600080fd5b80630df4778a146101875780631943c90b1461019c575b600080fd5b61019a610195366004611da0565b610415565b005b6101af6101aa366004611dd1565b61054f565b60408051825181526020808401519082015291810151908201526060015b60405180910390f35b61019a6101e4366004611dea565b6105ac565b61019a6101f7366004611dea565b6107c7565b61020f61020a366004611dd1565b61090e565b6040516101cd9190611e0c565b61019a61022a366004611dd1565b610970565b61019a61023d366004611dd1565b610cc4565b61019a610250366004611e6c565b610edd565b61019a61100d565b61027061026b366004611dd1565b611073565b6040516101cd9190611f0c565b61019a61028b366004611fd3565b611181565b61019a61029e366004612072565b6113e8565b6000546040516001600160a01b0390911681526020016101cd565b6102d16102cc366004611dea565b61155c565b6040519081526020016101cd565b6102f26102ed366004611dea565b61158d565b6040516101cd9190612125565b61027061030d366004611dd1565b61167f565b61038c610320366004611e6c565b604080516060808201835260008083526020808401829052928401819052938452600582528284206001600160a01b039590951684529381529181902081519384018252805460ff80821615158652610100909104161515928401929092526001909101549082015290565b6040805182511515815260208084015115159082015291810151908201526060016101cd565b6102d160015481565b61019a6103c9366004612072565b611782565b61019a6103dc36600461213f565b6118f4565b6103f46103ef366004611dea565b6119d6565b6040516101cd92919061215a565b61019a610410366004611e6c565b611a9f565b6000546001600160a01b031633146104745760405162461bcd60e51b815260206004820181905260248201527f4f776e61626c653a2063616c6c6572206973206e6f7420746865206f776e657260448201526064015b60405180910390fd5b600081815260046020526040902054156104d05760405162461bcd60e51b815260206004820152601a60248201527f7468652073657373696f6e20616c726561647920657869737473000000000000604482015260640161046b565b600081815260046020908152604080832085358155918501356001808401919091559085013560029092019190915580549161050b83612192565b91905055507fcf33babc496bb6dc2942b39cb7b75766bbbadf7da50d176ff8c513e99114023960015460405161054391815260200190565b60405180910390a15050565b61057360405180606001604052806000815260200160008152602001600081525090565b50600090815260046020908152604091829020825160608101845281548152600182015492810192909252600201549181019190915290565b6000828152600560209081526040808320338452909152902054829060ff166106175760405162461bcd60e51b815260206004820152601860248201527f43616c6c6572206973206e6f7420617574686f72697365640000000000000000604482015260640161046b565b600360008481526007602052604090205460ff16600581111561063c5761063c6121ca565b146106895760405162461bcd60e51b815260206004820152601c60248201527f796f752063616e277420766f746520617420746865206d6f6d656e7400000000604482015260640161046b565b6000838152600560209081526040808320338452909152902054610100900460ff16156106f85760405162461bcd60e51b815260206004820152601660248201527f596f75206861766520616c726561647920766f74656400000000000000000000604482015260640161046b565b600083815260056020908152604080832033845282528083206001810186905580547fffffffffffffffffffffffffffffffffffffffffffffffffffffffffffff00ff166101001790558583526006909152902080548390811061075e5761075e6121e0565b60009182526020822060016002909202010180549161077c83612192565b9091555050604080518481523360208201529081018390527f1abe610cf2bf87e57dcc1181fcf5ac0934e843d8344ab9eed6e86c799f62585e906060015b60405180910390a1505050565b6000546001600160a01b031633146108215760405162461bcd60e51b815260206004820181905260248201527f4f776e61626c653a2063616c6c6572206973206e6f7420746865206f776e6572604482015260640161046b565b81600160008281526007602052604090205460ff166005811115610847576108476121ca565b146108945760405162461bcd60e51b815260206004820152601d60248201527f5468652070726576696f757320766f7465206973206e6f74206f766572000000604482015260640161046b565b60008381526006602052604090208054839081106108b4576108b46121e0565b600091825260208220600290910201906108ce8282611c34565b5060006001919091015560408051848152602081018490527f3fe27baee9312f9bf18ff78ac3b65088b21cb0ebd9bd03cd7de26537d2683ac691016107ba565b60008181526002602090815260409182902080548351818402810184019094528084526060939283018282801561096457602002820191906000526020600020905b815481526020019060010190808311610950575b50505050509050919050565b6000546001600160a01b031633146109ca5760405162461bcd60e51b815260206004820181905260248201527f4f776e61626c653a2063616c6c6572206973206e6f7420746865206f776e6572604482015260640161046b565b600460008281526007602052604090205460ff1660058111156109ef576109ef6121ca565b14610a625760405162461bcd60e51b815260206004820152602a60248201527f43757272656e7420737461747573206973206e6f7420766f74696e672073657360448201527f73696f6e20656e64656400000000000000000000000000000000000000000000606482015260840161046b565b6000610a6c611c6e565b6000805b600085815260066020526040902054811015610b84576000858152600660205260409020805485919083908110610aa957610aa96121e0565b90600052602060002090600202016001015403610aef576005821015610aef5780838360058110610adc57610adc6121e0565b602002015281610aeb81612192565b9250505b6000858152600660205260409020805485919083908110610b1257610b126121e0565b9060005260206000209060020201600101541115610b7257610b32611c6e565b818152600086815260066020526040902080549194509082908110610b5957610b596121e0565b9060005260206000209060020201600101549350600191505b80610b7c81612192565b915050610a70565b5060005b81811015610c65576000858152600260205260409020838260058110610bb057610bb06121e0565b602090810291909101518254600181018455600093845282842001558682526003815260408083206006909252909120848360058110610bf257610bf26121e0565b602002015181548110610c0757610c076121e0565b60009182526020808320845460018101865594845292206002918202909201805490939091029091019081908390610c3e906121f6565b610c49929190611c8c565b5060019182015491015580610c5d81612192565b915050610b88565b5060008481526007602052604090819020805460ff1916600590811790915590517fb067099e10826978a3867510ad1e0dcf4ca5cef8e422fd8df2fc3d679167fe8d91610cb6918791600491612252565b60405180910390a150505050565b6000546001600160a01b03163314610d1e5760405162461bcd60e51b815260206004820181905260248201527f4f776e61626c653a2063616c6c6572206973206e6f7420746865206f776e6572604482015260640161046b565b60008181526007602052604090205460ff166005811115610d4157610d416121ca565b600503610d905760405162461bcd60e51b815260206004820152601460248201527f746869732073657373696f6e206973206f766572000000000000000000000000604482015260640161046b565b60008181526007602052604090205460ff166005811115610db357610db36121ca565b600403610e285760405162461bcd60e51b815260206004820152602260248201527f73746172742074616c6c7920766f74657320666f72207468697320736573736960448201527f6f6e000000000000000000000000000000000000000000000000000000000000606482015260840161046b565b60008181526007602052604090205460ff16806005811115610e4c57610e4c6121ca565b610e5790600161227b565b6005811115610e6857610e686121ca565b6000838152600760205260409020805460ff19166001836005811115610e9057610e906121ca565b0217905550600082815260076020526040908190205490517fb067099e10826978a3867510ad1e0dcf4ca5cef8e422fd8df2fc3d679167fe8d91610543918591859160ff90911690612252565b6000546001600160a01b03163314610f375760405162461bcd60e51b815260206004820181905260248201527f4f776e61626c653a2063616c6c6572206973206e6f7420746865206f776e6572604482015260640161046b565b806000808281526007602052604090205460ff166005811115610f5c57610f5c6121ca565b14610fa95760405162461bcd60e51b815260206004820152601e60248201527f54686520726567697374726174696f6e207068617365206973206f7665720000604482015260640161046b565b60008281526005602090815260408083206001600160a01b03871680855290835292819020805460ff191660011790558051858152918201929092527ff45b8429c36d478f9a6d081c4811a819b98aa5b608588bed9d406405cf28247391016107ba565b6000546001600160a01b031633146110675760405162461bcd60e51b815260206004820181905260248201527f4f776e61626c653a2063616c6c6572206973206e6f7420746865206f776e6572604482015260640161046b565b6110716000611bcc565b565b606060066000838152602001908152602001600020805480602002602001604051908101604052809291908181526020016000905b8282101561117657838290600052602060002090600202016040518060400160405290816000820180546110db906121f6565b80601f0160208091040260200160405190810160405280929190818152602001828054611107906121f6565b80156111545780601f1061112957610100808354040283529160200191611154565b820191906000526020600020905b81548152906001019060200180831161113757829003601f168201915b50505050508152602001600182015481525050815260200190600101906110a8565b505050509050919050565b81600160008281526007602052604090205460ff1660058111156111a7576111a76121ca565b146111f45760405162461bcd60e51b815260206004820152601d60248201527f5468652070726576696f757320766f7465206973206e6f74206f766572000000604482015260640161046b565b6000838152600560209081526040808320338452909152902054839060ff1661125f5760405162461bcd60e51b815260206004820152601860248201527f43616c6c6572206973206e6f7420617574686f72697365640000000000000000604482015260640161046b565b600084815260066020526040902054600b116112e35760405162461bcd60e51b815260206004820152602560248201527f546865206e756d626572206f662070726f706f73616c73206d6178696d616c2060448201527f6973203130000000000000000000000000000000000000000000000000000000606482015260840161046b565b60008351116113345760405162461bcd60e51b815260206004820152601160248201527f50726f706f73616c20697320656d707479000000000000000000000000000000604482015260640161046b565b600084815260066020908152604080832081518083019092528682528183018490528054600181018255908452928290208151805192946002029091019261138192849290910190611d17565b50602091820151600191820155600086815260069092526040909120547f11b66d7b406a89c4a3adad7bd086b7a3dd8d4f1414683007f6010ce2e75d834b9186916113cc9190612293565b6040805192835260208301919091523390820152606001610cb6565b6000546001600160a01b031633146114425760405162461bcd60e51b815260206004820181905260248201527f4f776e61626c653a2063616c6c6572206973206e6f7420746865206f776e6572604482015260640161046b565b806000808281526007602052604090205460ff166005811115611467576114676121ca565b146114b45760405162461bcd60e51b815260206004820152601e60248201527f54686520726567697374726174696f6e207068617365206973206f7665720000604482015260640161046b565b60005b835181101561152a5760008381526005602052604081208551600192908790859081106114e6576114e66121e0565b6020908102919091018101516001600160a01b03168252810191909152604001600020805460ff19169115159190911790558061152281612192565b9150506114b7565b507f4017e95edd36807631b3d3118690a800b577d899d26e50342f82efe05fe586aa82846040516107ba9291906122aa565b6002602052816000526040600020818154811061157857600080fd5b90600052602060002001600091509150505481565b60408051808201909152606081526000602082015260008381526006602052604090208054839081106115c2576115c26121e0565b90600052602060002090600202016040518060400160405290816000820180546115eb906121f6565b80601f0160208091040260200160405190810160405280929190818152602001828054611617906121f6565b80156116645780601f1061163957610100808354040283529160200191611664565b820191906000526020600020905b81548152906001019060200180831161164757829003601f168201915b50505050508152602001600182015481525050905092915050565b606060036000838152602001908152602001600020805480602002602001604051908101604052809291908181526020016000905b8282101561117657838290600052602060002090600202016040518060400160405290816000820180546116e7906121f6565b80601f0160208091040260200160405190810160405280929190818152602001828054611713906121f6565b80156117605780601f1061173557610100808354040283529160200191611760565b820191906000526020600020905b81548152906001019060200180831161174357829003601f168201915b50505050508152602001600182015481525050815260200190600101906116b4565b6000546001600160a01b031633146117dc5760405162461bcd60e51b815260206004820181905260248201527f4f776e61626c653a2063616c6c6572206973206e6f7420746865206f776e6572604482015260640161046b565b806000808281526007602052604090205460ff166005811115611801576118016121ca565b1461184e5760405162461bcd60e51b815260206004820152601e60248201527f54686520726567697374726174696f6e207068617365206973206f7665720000604482015260640161046b565b60005b83518110156118c25760008381526005602052604081208551829087908590811061187e5761187e6121e0565b6020908102919091018101516001600160a01b03168252810191909152604001600020805460ff1916911515919091179055806118ba81612192565b915050611851565b507f22b60c731a41570d539f5aad0a634d2dab5a34bc566bf56673215dafd5dce2d382846040516107ba9291906122aa565b6000546001600160a01b0316331461194e5760405162461bcd60e51b815260206004820181905260248201527f4f776e61626c653a2063616c6c6572206973206e6f7420746865206f776e6572604482015260640161046b565b6001600160a01b0381166119ca5760405162461bcd60e51b815260206004820152602660248201527f4f776e61626c653a206e6577206f776e657220697320746865207a65726f206160448201527f6464726573730000000000000000000000000000000000000000000000000000606482015260840161046b565b6119d381611bcc565b50565b600360205281600052604060002081815481106119f257600080fd5b906000526020600020906002020160009150915050806000018054611a16906121f6565b80601f0160208091040260200160405190810160405280929190818152602001828054611a42906121f6565b8015611a8f5780601f10611a6457610100808354040283529160200191611a8f565b820191906000526020600020905b815481529060010190602001808311611a7257829003601f168201915b5050505050908060010154905082565b6000546001600160a01b03163314611af95760405162461bcd60e51b815260206004820181905260248201527f4f776e61626c653a2063616c6c6572206973206e6f7420746865206f776e6572604482015260640161046b565b806000808281526007602052604090205460ff166005811115611b1e57611b1e6121ca565b14611b6b5760405162461bcd60e51b815260206004820152601e60248201527f54686520726567697374726174696f6e207068617365206973206f7665720000604482015260640161046b565b60008281526005602090815260408083206001600160a01b03871680855290835292819020805460ff191690558051858152918201929092527ff33d8ad5e501b3893c10688e0f35b9941d6e03a12009e3794ed37686a6c5d88791016107ba565b600080546001600160a01b038381167fffffffffffffffffffffffff0000000000000000000000000000000000000000831681178455604051919092169283917f8be0079c531659141344cd1fd0a4f28419497f9722a3daafe3b4186f6b6457e09190a35050565b508054611c40906121f6565b6000825580601f10611c50575050565b601f0160209004906000526020600020908101906119d39190611d8b565b6040518060a001604052806005906020820280368337509192915050565b828054611c98906121f6565b90600052602060002090601f016020900481019282611cba5760008555611d07565b82601f10611ccb5780548555611d07565b82800160010185558215611d0757600052602060002091601f016020900482015b82811115611d07578254825591600101919060010190611cec565b50611d13929150611d8b565b5090565b828054611d23906121f6565b90600052602060002090601f016020900481019282611d455760008555611d07565b82601f10611d5e57805160ff1916838001178555611d07565b82800160010185558215611d07579182015b82811115611d07578251825591602001919060010190611d70565b5b80821115611d135760008155600101611d8c565b6000808284036080811215611db457600080fd5b6060811215611dc257600080fd5b50919360608501359350915050565b600060208284031215611de357600080fd5b5035919050565b60008060408385031215611dfd57600080fd5b50508035926020909101359150565b6020808252825182820181905260009190848201906040850190845b81811015611e4457835183529284019291840191600101611e28565b50909695505050505050565b80356001600160a01b0381168114611e6757600080fd5b919050565b60008060408385031215611e7f57600080fd5b611e8883611e50565b946020939093013593505050565b6000815180845260005b81811015611ebc57602081850181015186830182015201611ea0565b81811115611ece576000602083870101525b50601f01601f19169290920160200192915050565b6000815160408452611ef86040850182611e96565b602093840151949093019390935250919050565b6000602080830181845280855180835260408601915060408160051b870101925083870160005b82811015611f7f577fffffffffffffffffffffffffffffffffffffffffffffffffffffffffffffffc0888603018452611f6d858351611ee3565b94509285019290850190600101611f33565b5092979650505050505050565b634e487b7160e01b600052604160045260246000fd5b604051601f8201601f1916810167ffffffffffffffff81118282101715611fcb57611fcb611f8c565b604052919050565b60008060408385031215611fe657600080fd5b8235915060208084013567ffffffffffffffff8082111561200657600080fd5b818601915086601f83011261201a57600080fd5b81358181111561202c5761202c611f8c565b61203e84601f19601f84011601611fa2565b9150808252878482850101111561205457600080fd5b80848401858401376000848284010152508093505050509250929050565b6000806040838503121561208557600080fd5b823567ffffffffffffffff8082111561209d57600080fd5b818501915085601f8301126120b157600080fd5b81356020828211156120c5576120c5611f8c565b8160051b92506120d6818401611fa2565b82815292840181019281810190898511156120f057600080fd5b948201945b848610156121155761210686611e50565b825294820194908201906120f5565b9997909101359750505050505050565b6020815260006121386020830184611ee3565b9392505050565b60006020828403121561215157600080fd5b61213882611e50565b60408152600061216d6040830185611e96565b90508260208301529392505050565b634e487b7160e01b600052601160045260246000fd5b60007fffffffffffffffffffffffffffffffffffffffffffffffffffffffffffffffff82036121c3576121c361217c565b5060010190565b634e487b7160e01b600052602160045260246000fd5b634e487b7160e01b600052603260045260246000fd5b600181811c9082168061220a57607f821691505b60208210810361222a57634e487b7160e01b600052602260045260246000fd5b50919050565b6006811061224e57634e487b7160e01b600052602160045260246000fd5b9052565b838152606081016122666020830185612230565b6122736040830184612230565b949350505050565b6000821982111561228e5761228e61217c565b500190565b6000828210156122a5576122a561217c565b500390565b6000604082018483526020604081850152818551808452606086019150828701935060005b818110156122f45784516001600160a01b0316835293830193918301916001016122cf565b509097965050505050505056fea26469706673582212202d943857cb446dfe90dff7bb89fae42b27f259f896440522293026268e64e5d064736f6c634300080d0033",
  "immutableReferences": {},
  "source": "// SPDX-License-Identifier: GPL-3.0\npragma solidity 0.8.13;\n\nimport \"@openzeppelin/contracts/access/Ownable.sol\";\n\n/**\n * @title Voting\n * @author Sebastien Gazeau\n * @dev Voting system management\n */\ncontract Voting is Ownable{\n\t// Different states of a vote\n\tenum WorkflowStatus { \n\t\tRegisteringVoters,\n\t\tProposalsRegistrationStarted,\n\t\tProposalsRegistrationEnded,\n\t\tVotingSessionStarted,\n\t\tVotingSessionEnded,\n\t\tVotesTallied\n\t}\n\t// block.timestamp<heureFin\n\tstruct Session {\n\t\tuint startDate;\n\t\tuint startVoting;\n\t\tuint endDate;\n\t}\n\tstruct Voter {\n\t\tbool isRegistered;\n\t\tbool hasVoted;\n\t\tuint votedProposalId;\n\t}\n\tstruct Proposal {\n\t\tstring description;\n\t\tuint voteCount;\n\t}\n\tuint public lastSession;\n\tmapping(uint => uint[]) public winningProposalsID;\n\tmapping(uint => Proposal[]) public winningProposals;\n\tmapping(uint => Session) private listSession;\n\tmapping(uint => mapping(address => Voter)) private listVoters;\n\tmapping(uint => Proposal[]) private listProposals;\n\tmapping(uint => WorkflowStatus) private listWorkflowStatus;\n\n\t/**\n\t * @dev Emitted when one voter is added for the voting session\n\t */\n\tevent VoterRegistered(uint index, address voterAddress);\n\t/**\n\t * @dev Emitted when multiple voter is added for the voting session\n\t */\n\tevent VotersRegistered(uint index, address[] votersAddress);\n\t/**\n\t * @dev Emitted when one voter is excluded for the voting session\n\t */\n\tevent VoterExcluded(uint index, address voterAddress);\n\t/**\n\t * @dev Emitted when multiple voter is excluded for the voting session\n\t */\n\tevent VotersExcluded(uint index, address[] votersAddress);\n\t/**\n\t * @dev Emitted when a new voting session is created by calling {startVoting}.\n\t * `lastSession` is the new last index for voting sessions \n\t */\n\tevent VotingStarted(uint lastSession);\n\t/**\n\t * @dev Emitted when the owner changes the status of the workflow\n\t * (from `previousStatus` to `newStatus`) for a voting session `index`.\n\t */\n\tevent WorkflowStatusChange(uint index,WorkflowStatus previousStatus, WorkflowStatus newStatus);\n\t/**\n\t * @dev Emitted when a new proposal is created.\n\t * `proposalId` is the id of the proposal for voting sessions `index` \n\t */\n\tevent ProposalRegistered(uint index,uint proposalId,address proposalSender);\n\t/**\n\t * @dev Emitted when a proposal is deleted.\n\t * `proposalId` is the id of the proposal for voting sessions `index` \n\t */\n\tevent ProposalDeleted(uint index,uint proposalId);\n\t/**\n\t * @dev Emitted when a vote is submit.\n\t * `proposalId` is the id of the proposal for voting sessions `index`chosose by the `voter`\n\t */\n\tevent Voted (uint index,address voter, uint proposalId);\n\n\t/**\n\t * @dev modifier to check if caller is an authorized voter\n\t */ \n\tmodifier anAuthorizedVoter(uint _index) {\n\t\trequire(listVoters[_index][msg.sender].isRegistered, \"Caller is not authorised\");\n\t\t_;\n\t}\n\t/**\n\t * @dev modifier to check if caller can add voters\n\t */ \n\tmodifier inRegisteringStatus(uint _index) {\n\t\trequire(listWorkflowStatus[_index] == WorkflowStatus.RegisteringVoters, \"The registration phase is over\");\n\t\t_;\n\t}\n\t/**\n\t * @dev modifier to check if caller can add voters\n\t */ \n\tmodifier inProposalsRegistrationStatus(uint _index) {\n\t\trequire(listWorkflowStatus[_index] == WorkflowStatus.ProposalsRegistrationStarted, \"The previous vote is not over\");\n\t\t_;\n\t}\n\n\t/**\n\t * @dev start voting\n\t * @param _session all the dates of the new session\n\t * @param _index the voting session index\n\t */\n\tfunction startVoting(Session calldata _session, uint _index) external onlyOwner {\n\t\trequire(listSession[_index].startDate == 0, 'the session already exists');\n\t\tlistSession[_index].startDate = _session.startDate;\n\t\tlistSession[_index].startVoting = _session.startVoting;\n\t\tlistSession[_index].endDate = _session.endDate;\n\t\tlastSession++;\n\t\temit VotingStarted(lastSession);\n\t}\n\t/**\n\t * @dev Get information for a voting session\n\t * @param _index the voting session index\n\t * @return session_ information for a voting session\n\t */\n\tfunction getVotingSession(uint _index) external view returns(Session memory session_){\n\t\treturn (listSession[_index]);\n\t}\n\n\t/**\n\t * @dev change workflow status for a voting session\n\t * @param _index the voting session index\n\t */\n\tfunction nextWorkflowStatus(uint _index) external onlyOwner{\n\t\trequire (uint(listWorkflowStatus[_index]) != 5, \"this session is over\");\n\t\trequire (uint(listWorkflowStatus[_index]) != 4, \"start tally votes for this session\");\n\t\tWorkflowStatus old = listWorkflowStatus[_index];\n\t\tlistWorkflowStatus[_index]= WorkflowStatus(uint (listWorkflowStatus[_index]) + 1);\n\t\temit WorkflowStatusChange(_index,old, listWorkflowStatus[_index]);\n\t}\n\n\t/****************************************************************************************************/\n\t/******************************************* Voter Action *******************************************/\n\t/****************************************************************************************************/\n\t// :::::::::::::::: SETTERS :::::::::::::::: //\n\t/**\n\t * @dev add a voter\n\t * @param _address address to add\n\t */\n\tfunction voterRegistered(address _address, uint _index) public onlyOwner inRegisteringStatus(_index) {\n\t\tlistVoters[_index][_address].isRegistered = true;\n\t\temit VoterRegistered(_index,_address);\n\t}\n\n\t/**\n\t * @dev add voters\n\t * @param _address table of addresses to add\n\t * @param _index the voting session index\n\t */\n\tfunction votersRegistered(address[] memory _address, uint _index)external onlyOwner inRegisteringStatus(_index) {\n\t\tfor (uint i = 0; i < _address.length; i++){\n\t\t\tlistVoters[_index][_address[i]].isRegistered = true;\n\t\t}\n\t\temit VotersRegistered(_index,_address);\n\t}\n\t/**\n\t * @dev exclude a voter\n\t * @param _address address to eclude\n\t * @param _index the voting session index\n\t */\n\tfunction voterExcluded(address _address, uint _index) public onlyOwner inRegisteringStatus(_index) {\n\t\tlistVoters[_index][_address].isRegistered = false;\n\t\temit VoterExcluded(_index,_address);\n\t}\n\t/**\n\t * @dev exclude voters\n\t * @param _address table of addresses to exclude\n\t * @param _index the voting session index\n\t */\n\tfunction votersExcluded(address[] memory _address, uint _index) public onlyOwner inRegisteringStatus(_index){\n\t\tfor (uint i = 0; i < _address.length; i++){\n\t\t\tlistVoters[_index][_address[i]].isRegistered = false;\n\t\t}\n\t\temit VotersExcluded(_index,_address);\n\t}\n\t// :::::::::::::::: GETTERS ::::::::::::::::::::://\n\t/**\n\t * @dev Get one voter\n\t * @param _addressVoter address of a voter\n\t * @param _index the voting session index\n\t * @return voterReq_ one Voter\n\t */\n\tfunction getVoter(address _addressVoter, uint _index) external view returns(Voter memory voterReq_){\n\t\t// voterReq = listVoters[_index][_addressVoter];\n\t\treturn (listVoters[_index][_addressVoter]);\n\t}\n\t/***************************************************************************************************/\n\t/***************************************** Proposal Action *****************************************/\n\t/***************************************************************************************************/\n\t// :::::::::::::::: SETTER :::::::::::::::: //\n\t/**\n\t * @dev set new proposal\n\t * @param _index the voting session index\n\t * @param _description a new proposal description\n\t */\n\tfunction setProposal(uint _index,string memory _description) external inProposalsRegistrationStatus(_index) anAuthorizedVoter(_index){\n\t\trequire(listProposals[_index].length < 11, \"The number of proposals maximal is 10\");\n\t\trequire(bytes(_description).length > 0, \"Proposal is empty\");\n\t\tlistProposals[_index].push(Proposal({\n\t\t\tdescription:_description,\n\t\t\tvoteCount:0\n\t\t}));\n\t\temit ProposalRegistered(_index, listProposals[_index].length-1, msg.sender);\n\t}\n\t// :::::::::::::::: GETTERS ::::::::::::::::::::://\n\t/**\n\t * @dev Get all proposal\n\t * @param _index the voting session index\n\t * @param _id identifier of the proposal\n\t * @return proposal_ details proposal\n\t */\n\tfunction getProposal(uint _index, uint _id) external view returns(Proposal memory proposal_) {\n\t\treturn (listProposals[_index][_id]);\n\t}\n\t/**\n\t * @dev Get proposals\n\t * @param _index the voting session index\n\t * @return proposals_ array proposals\n\t */\n\tfunction getAllProposal(uint _index) external view returns(Proposal[] memory proposals_){\n\t\treturn (listProposals[_index]);\n\t}\n\t// :::::::::::::::: DELETE ::::::::::::::::::::://\n\t/**\n\t * @dev delete a proposal\n\t * @param _index the voting session index\n\t * @param _id a new proposal description\n\t */\n\tfunction deleteProposal(uint _index, uint _id) external onlyOwner inProposalsRegistrationStatus(_index){\n\t\tdelete listProposals[_index][_id];\n\t\temit ProposalDeleted(_index, _id);\n\t}\n\t/***************************************************************************************************/\n\t/******************************************* Vote Action *******************************************/\n\t/***************************************************************************************************/\n\t// :::::::::::::::: SETTER :::::::::::::::: //\n\t/**\n\t * @dev set vote \n\t * @param _index the voting session index\n\t * @param _proposalId id of the proposal voted\n\t */\n\tfunction setVoted(uint _index, uint _proposalId) external anAuthorizedVoter(_index) {\n\t\trequire(listWorkflowStatus[_index] == WorkflowStatus.VotingSessionStarted, \"you can't vote at the moment\");\n\t\trequire(listVoters[_index][msg.sender].hasVoted == false, \"You have already voted\");\n\t\tlistVoters[_index][msg.sender].votedProposalId = _proposalId;\n\t\tlistVoters[_index][msg.sender].hasVoted = true;\n        listProposals[_index][_proposalId].voteCount++;\n\t\temit Voted(_index,msg.sender, _proposalId);\n\t}\n\n\t/**\n\t * @dev calcul the winner of the proposal with egality\n\t * @param _index the voting session index\n\t */\n\tfunction tallyVotes(uint _index) external onlyOwner () {\n       require(listWorkflowStatus[_index] == WorkflowStatus.VotingSessionEnded, \"Current status is not voting session ended\");\n        uint highestCount;\n        uint[5]memory winners; \n        uint nbWinners;\n        for (uint i = 0; i < listProposals[_index].length; i++) {\n            if (listProposals[_index][i].voteCount == highestCount) {\n\t\t\t\tif(nbWinners<5){\n\t\t\t\t\twinners[nbWinners]=i;\n\t\t\t\t\tnbWinners++;\n\t\t\t\t}\n            }\n            if (listProposals[_index][i].voteCount > highestCount) {\n                delete winners;\n                winners[0]= i;\n                highestCount = listProposals[_index][i].voteCount;\n                nbWinners=1;\n            }\n        }\n        for(uint j=0;j<nbWinners;j++){\n            winningProposalsID[_index].push(winners[j]);\n            winningProposals[_index].push(listProposals[_index][winners[j]]);\n        }\n        listWorkflowStatus[_index] = WorkflowStatus.VotesTallied;\n\t\temit WorkflowStatusChange(_index,WorkflowStatus.VotingSessionEnded, listWorkflowStatus[_index]);\n    }\n\t// :::::::::::::::: GETTERS ::::::::::::::::::::://\n\t/**\n\t * @dev Get winning proposals ID\n\t * @param _index the voting session index\n\t * @return winningProposalsID_ list winning proposals ID\n\t */\n\tfunction getWinningProposalsID(uint _index) external view returns(uint[] memory winningProposalsID_) {\n\t\treturn (winningProposalsID[_index]);\n\t}\n\t/**\n\t * @dev Get winning proposals\n\t * @param _index the voting session index\n\t * @return winningProposals_ list winning proposals\n\t */\n\tfunction getWinningProposals(uint _index) external view returns(Proposal[] memory winningProposals_) {\n\t\treturn (winningProposals[_index]);\n\t}\n}",
  "sourcePath": "/media/sebastien/workspace/alyra/cours/Project-3/contracts/Voting.sol",
  "compiler": {
    "name": "solc",
    "version": "0.8.13+commit.abaa5c0e.Emscripten.clang"
  },
  "schemaVersion": "3.4.7",
  "updatedAt": "2022-04-23T11:14:56.291Z",
  "networkType": "ethereum",
  "devdoc": {
    "author": "Sebastien Gazeau",
    "details": "Voting system management",
    "events": {
      "ProposalDeleted(uint256,uint256)": {
        "details": "Emitted when a proposal is deleted. `proposalId` is the id of the proposal for voting sessions `index` "
      },
      "ProposalRegistered(uint256,uint256,address)": {
        "details": "Emitted when a new proposal is created. `proposalId` is the id of the proposal for voting sessions `index` "
      },
      "Voted(uint256,address,uint256)": {
        "details": "Emitted when a vote is submit. `proposalId` is the id of the proposal for voting sessions `index`chosose by the `voter`"
      },
      "VoterExcluded(uint256,address)": {
        "details": "Emitted when one voter is excluded for the voting session"
      },
      "VoterRegistered(uint256,address)": {
        "details": "Emitted when one voter is added for the voting session"
      },
      "VotersExcluded(uint256,address[])": {
        "details": "Emitted when multiple voter is excluded for the voting session"
      },
      "VotersRegistered(uint256,address[])": {
        "details": "Emitted when multiple voter is added for the voting session"
      },
      "VotingStarted(uint256)": {
        "details": "Emitted when a new voting session is created by calling {startVoting}. `lastSession` is the new last index for voting sessions "
      },
      "WorkflowStatusChange(uint256,uint8,uint8)": {
        "details": "Emitted when the owner changes the status of the workflow (from `previousStatus` to `newStatus`) for a voting session `index`."
      }
    },
    "kind": "dev",
    "methods": {
      "deleteProposal(uint256,uint256)": {
        "details": "delete a proposal",
        "params": {
          "_id": "a new proposal description",
          "_index": "the voting session index"
        }
      },
      "getAllProposal(uint256)": {
        "details": "Get proposals",
        "params": {
          "_index": "the voting session index"
        },
        "returns": {
          "proposals_": "array proposals"
        }
      },
      "getProposal(uint256,uint256)": {
        "details": "Get all proposal",
        "params": {
          "_id": "identifier of the proposal",
          "_index": "the voting session index"
        },
        "returns": {
          "proposal_": "details proposal"
        }
      },
      "getVoter(address,uint256)": {
        "details": "Get one voter",
        "params": {
          "_addressVoter": "address of a voter",
          "_index": "the voting session index"
        },
        "returns": {
          "voterReq_": "one Voter"
        }
      },
      "getVotingSession(uint256)": {
        "details": "Get information for a voting session",
        "params": {
          "_index": "the voting session index"
        },
        "returns": {
          "session_": "information for a voting session"
        }
      },
      "getWinningProposals(uint256)": {
        "details": "Get winning proposals",
        "params": {
          "_index": "the voting session index"
        },
        "returns": {
          "winningProposals_": "list winning proposals"
        }
      },
      "getWinningProposalsID(uint256)": {
        "details": "Get winning proposals ID",
        "params": {
          "_index": "the voting session index"
        },
        "returns": {
          "winningProposalsID_": "list winning proposals ID"
        }
      },
      "nextWorkflowStatus(uint256)": {
        "details": "change workflow status for a voting session",
        "params": {
          "_index": "the voting session index"
        }
      },
      "owner()": {
        "details": "Returns the address of the current owner."
      },
      "renounceOwnership()": {
        "details": "Leaves the contract without owner. It will not be possible to call `onlyOwner` functions anymore. Can only be called by the current owner. NOTE: Renouncing ownership will leave the contract without an owner, thereby removing any functionality that is only available to the owner."
      },
      "setProposal(uint256,string)": {
        "details": "set new proposal",
        "params": {
          "_description": "a new proposal description",
          "_index": "the voting session index"
        }
      },
      "setVoted(uint256,uint256)": {
        "details": "set vote ",
        "params": {
          "_index": "the voting session index",
          "_proposalId": "id of the proposal voted"
        }
      },
      "startVoting((uint256,uint256,uint256),uint256)": {
        "details": "start voting",
        "params": {
          "_index": "the voting session index",
          "_session": "all the dates of the new session"
        }
      },
      "tallyVotes(uint256)": {
        "details": "calcul the winner of the proposal with egality",
        "params": {
          "_index": "the voting session index"
        }
      },
      "transferOwnership(address)": {
        "details": "Transfers ownership of the contract to a new account (`newOwner`). Can only be called by the current owner."
      },
      "voterExcluded(address,uint256)": {
        "details": "exclude a voter",
        "params": {
          "_address": "address to eclude",
          "_index": "the voting session index"
        }
      },
      "voterRegistered(address,uint256)": {
        "details": "add a voter",
        "params": {
          "_address": "address to add"
        }
      },
      "votersExcluded(address[],uint256)": {
        "details": "exclude voters",
        "params": {
          "_address": "table of addresses to exclude",
          "_index": "the voting session index"
        }
      },
      "votersRegistered(address[],uint256)": {
        "details": "add voters",
        "params": {
          "_address": "table of addresses to add",
          "_index": "the voting session index"
        }
      }
    },
    "title": "Voting",
    "version": 1
  },
  "userdoc": {
    "kind": "user",
    "methods": {},
    "version": 1
  }
}